{
  "transactions": [
    {
      "hash": "0xf168ec4a8c23a34ced4d1639f5fa46dfc7a3fb2e2579dc6c0686707537e49179",
      "transactionType": "CALL",
      "contractName": null,
      "contractAddress": "0x33c9bd33bfb78840edb366110e018567b51e80c7",
      "function": "mintNft(string)",
      "arguments": [
        "ipfs://bafybeidk2c2l344lqmzyxqnc2kuovji37rwsljntsbzdigqqiqtnmiggha.ipfs.dweb.link"
      ],
      "transaction": {
        "from": "0x645c3a312ac2806cae390086c53f91356720f923",
        "to": "0x33c9bd33bfb78840edb366110e018567b51e80c7",
        "gas": "0x34bf5",
        "value": "0x0",
        "input": "0xda86f4a900000000000000000000000000000000000000000000000000000000000000200000000000000000000000000000000000000000000000000000000000000051697066733a2f2f62616679626569646b3263326c3334346c716d7a7978716e63326b756f766a6933377277736c6a6e7473627a64696771716971746e6d69676768612e697066732e647765622e6c696e6b000000000000000000000000000000",
        "nonce": "0x1e",
        "chainId": "0xaa36a7"
      },
      "additionalContracts": [],
      "isFixedGasLimit": false
    }
  ],
  "receipts": [
    {
      "status": "0x1",
      "cumulativeGasUsed": "0xc59f3d",
      "logs": [
        {
          "address": "0x33c9bd33bfb78840edb366110e018567b51e80c7",
          "topics": [
            "0xddf252ad1be2c89b69c2b068fc378daa952ba7f163c4a11628f55a4df523b3ef",
            "0x0000000000000000000000000000000000000000000000000000000000000000",
            "0x000000000000000000000000645c3a312ac2806cae390086c53f91356720f923",
            "0x0000000000000000000000000000000000000000000000000000000000000002"
          ],
          "data": "0x",
          "blockHash": "0xd87d8d0655de6322131256eba077ca1db20048c9728ec211e4d559a54e0eaed8",
          "blockNumber": "0x74a6d1",
          "transactionHash": "0xf168ec4a8c23a34ced4d1639f5fa46dfc7a3fb2e2579dc6c0686707537e49179",
          "transactionIndex": "0x58",
          "logIndex": "0x77",
          "removed": false
        }
      ],
      "logsBloom": "0x04000000000000000000000000000000000000000000000000080000000000000000000000000000000000000000000000010000000000000000000000000000000000040000000000000008000000000000000000000000000000000000000000000000020000000000000000000800000000000000000000000010000000000000000000000000000000000000000000000000000000000000000000000000000000000000000000000100000000000000000000000000000000000000000000001002000000000000000000000000000000000000000000000000000020000000000000040000000000000000000000001000008000000000000000000000",
      "type": "0x2",
      "transactionHash": "0xf168ec4a8c23a34ced4d1639f5fa46dfc7a3fb2e2579dc6c0686707537e49179",
      "transactionIndex": "0x58",
      "blockHash": "0xd87d8d0655de6322131256eba077ca1db20048c9728ec211e4d559a54e0eaed8",
      "blockNumber": "0x74a6d1",
      "gasUsed": "0x24111",
      "effectiveGasPrice": "0x8e6369b46",
      "from": "0x645c3a312ac2806cae390086c53f91356720f923",
      "to": "0x33c9bd33bfb78840edb366110e018567b51e80c7",
      "contractAddress": null
    }
  ],
  "libraries": [],
  "pending": [],
  "returns": {},
  "timestamp": 1738758288,
  "chain": 11155111,
  "commit": "4c7e647"
}