{
  "transactions": [
    {
      "hash": "0xd906a41c8d1a0172044410944a4c1715603acffbaf833d5a2f6050b56c54c845",
      "transactionType": "CALL",
      "contractName": null,
      "contractAddress": "0x33c9bd33bfb78840edb366110e018567b51e80c7",
      "function": "mintNft(string)",
      "arguments": [
        "ipfs://QmVXcWJze5A7eELji399JTVEomaPAo5JYxfMBtGQYr9m1R"
      ],
      "transaction": {
        "from": "0x645c3a312ac2806cae390086c53f91356720f923",
        "to": "0x33c9bd33bfb78840edb366110e018567b51e80c7",
        "gas": "0x38de9",
        "value": "0x0",
        "input": "0xda86f4a900000000000000000000000000000000000000000000000000000000000000200000000000000000000000000000000000000000000000000000000000000035697066733a2f2f516d565863574a7a6535413765454c6a693339394a5456456f6d6150416f354a5978664d427447515972396d31520000000000000000000000",
        "nonce": "0x1c",
        "chainId": "0xaa36a7"
      },
      "additionalContracts": [],
      "isFixedGasLimit": false
    }
  ],
  "receipts": [
    {
      "status": "0x1",
      "cumulativeGasUsed": "0x12654e3",
      "logs": [
        {
          "address": "0x33c9bd33bfb78840edb366110e018567b51e80c7",
          "topics": [
            "0xddf252ad1be2c89b69c2b068fc378daa952ba7f163c4a11628f55a4df523b3ef",
            "0x0000000000000000000000000000000000000000000000000000000000000000",
            "0x000000000000000000000000645c3a312ac2806cae390086c53f91356720f923",
            "0x0000000000000000000000000000000000000000000000000000000000000000"
          ],
          "data": "0x",
          "blockHash": "0xe91ce743cd099442f2675685d70e44cea778ac04f68ef6067fe865c9ec8cecbf",
          "blockNumber": "0x74a699",
          "transactionHash": "0xd906a41c8d1a0172044410944a4c1715603acffbaf833d5a2f6050b56c54c845",
          "transactionIndex": "0x82",
          "logIndex": "0xbf",
          "removed": false
        }
      ],
      "logsBloom": "0x00000000000000000000000000000000000000000000000000080000000000000000000000000000000000000000000000010000000000000000000000000000000000040000000000000008000000000000000000000000000000000000000000000000020000000000000000000800000000000000000000000010000000000000000000000000000000000000000000000000000000000000000000000000000000000000000000000000000000000000000000000000000000000000000000001002000000000000000000000000000000000000000000000000000020000000000000040000000000000000000000001000000000000000000000000000",
      "type": "0x2",
      "transactionHash": "0xd906a41c8d1a0172044410944a4c1715603acffbaf833d5a2f6050b56c54c845",
      "transactionIndex": "0x82",
      "blockHash": "0xe91ce743cd099442f2675685d70e44cea778ac04f68ef6067fe865c9ec8cecbf",
      "blockNumber": "0x74a699",
      "gasUsed": "0x26e2a",
      "effectiveGasPrice": "0x8d683c7c0",
      "from": "0x645c3a312ac2806cae390086c53f91356720f923",
      "to": "0x33c9bd33bfb78840edb366110e018567b51e80c7",
      "contractAddress": null
    }
  ],
  "libraries": [],
  "pending": [],
  "returns": {},
  "timestamp": 1738757557,
  "chain": 11155111,
  "commit": "4c7e647"
}