{
  "transactions": [
    {
      "hash": "0xfe61c36856fd99e8921d9c173f887ed4664ed9c07797f98115c5993d04131ae2",
      "transactionType": "CALL",
      "contractName": null,
      "contractAddress": "0x33c9bd33bfb78840edb366110e018567b51e80c7",
      "function": "mintNft(string)",
      "arguments": [
        "https://bafybeidk2c2l344lqmzyxqnc2kuovji37rwsljntsbzdigqqiqtnmiggha.ipfs.dweb.link?filename=wonhi.json"
      ],
      "transaction": {
        "from": "0x645c3a312ac2806cae390086c53f91356720f923",
        "to": "0x33c9bd33bfb78840edb366110e018567b51e80c7",
        "gas": "0x396d9",
        "value": "0x0",
        "input": "0xda86f4a90000000000000000000000000000000000000000000000000000000000000020000000000000000000000000000000000000000000000000000000000000006668747470733a2f2f62616679626569646b3263326c3334346c716d7a7978716e63326b756f766a6933377277736c6a6e7473627a64696771716971746e6d69676768612e697066732e647765622e6c696e6b3f66696c656e616d653d776f6e68692e6a736f6e0000000000000000000000000000000000000000000000000000",
        "nonce": "0x20",
        "chainId": "0xaa36a7"
      },
      "additionalContracts": [],
      "isFixedGasLimit": false
    }
  ],
  "receipts": [
    {
      "status": "0x1",
      "cumulativeGasUsed": "0x1083875",
      "logs": [
        {
          "address": "0x33c9bd33bfb78840edb366110e018567b51e80c7",
          "topics": [
            "0xddf252ad1be2c89b69c2b068fc378daa952ba7f163c4a11628f55a4df523b3ef",
            "0x0000000000000000000000000000000000000000000000000000000000000000",
            "0x000000000000000000000000645c3a312ac2806cae390086c53f91356720f923",
            "0x0000000000000000000000000000000000000000000000000000000000000004"
          ],
          "data": "0x",
          "blockHash": "0x2af5834fa044af8ec7e51163d60080f996f6c5624ae95aa3357786a6ad6ce1f6",
          "blockNumber": "0x74a73a",
          "transactionHash": "0xfe61c36856fd99e8921d9c173f887ed4664ed9c07797f98115c5993d04131ae2",
          "transactionIndex": "0x77",
          "logIndex": "0xb4",
          "removed": false
        }
      ],
      "logsBloom": "0x00000000000000000000000000000000000000000000000000080000000000000000000000000000000000000000000000010000000000000000000000000000000000040000000000000008000000000000000000000000000000000000000008000000020000000000000000000800000000000000000000000010000000000000000000000000000000000000000000000000000000000000000000000000000000000000000000000000000000000000000000000000002000000000000000001002000000000000000000000000000000008000000000000000000020000000000000040000000000000000000000001000000000000000000000000000",
      "type": "0x2",
      "transactionHash": "0xfe61c36856fd99e8921d9c173f887ed4664ed9c07797f98115c5993d04131ae2",
      "transactionIndex": "0x77",
      "blockHash": "0x2af5834fa044af8ec7e51163d60080f996f6c5624ae95aa3357786a6ad6ce1f6",
      "blockNumber": "0x74a73a",
      "gasUsed": "0x2993c",
      "effectiveGasPrice": "0xa143ba432",
      "from": "0x645c3a312ac2806cae390086c53f91356720f923",
      "to": "0x33c9bd33bfb78840edb366110e018567b51e80c7",
      "contractAddress": null
    }
  ],
  "libraries": [],
  "pending": [],
  "returns": {},
  "timestamp": 1738759621,
  "chain": 11155111,
  "commit": "4c7e647"
}