{
  "transactions": [
    {
      "hash": "0xa9ed611ae96dcc949a67017bf00cd4f8a47971422c546cbeeb46eceaacdfaf8a",
      "transactionType": "CALL",
      "contractName": null,
      "contractAddress": "0x33c9bd33bfb78840edb366110e018567b51e80c7",
      "function": "mintNft(string)",
      "arguments": [
        "ipfs://bafybeig37ioir76s7mg5oobetncojcm3c3hxasyd4rvid4jqhy4gkaheg4/?filename=0-PUG.json"
      ],
      "transaction": {
        "from": "0x645c3a312ac2806cae390086c53f91356720f923",
        "to": "0x33c9bd33bfb78840edb366110e018567b51e80c7",
        "gas": "0x34c5e",
        "value": "0x0",
        "input": "0xda86f4a900000000000000000000000000000000000000000000000000000000000000200000000000000000000000000000000000000000000000000000000000000057697066733a2f2f62616679626569673337696f6972373673376d67356f6f6265746e636f6a636d3363336878617379643472766964346a71687934676b61686567342f3f66696c656e616d653d302d5055472e6a736f6e000000000000000000",
        "nonce": "0x1f",
        "chainId": "0xaa36a7"
      },
      "additionalContracts": [],
      "isFixedGasLimit": false
    }
  ],
  "receipts": [
    {
      "status": "0x1",
      "cumulativeGasUsed": "0x106808a",
      "logs": [
        {
          "address": "0x33c9bd33bfb78840edb366110e018567b51e80c7",
          "topics": [
            "0xddf252ad1be2c89b69c2b068fc378daa952ba7f163c4a11628f55a4df523b3ef",
            "0x0000000000000000000000000000000000000000000000000000000000000000",
            "0x000000000000000000000000645c3a312ac2806cae390086c53f91356720f923",
            "0x0000000000000000000000000000000000000000000000000000000000000003"
          ],
          "data": "0x",
          "blockHash": "0xd1fd0501c9e1df6a0f9773b350c2b8cae25d7db4f9b7ceb35214c740000cd55c",
          "blockNumber": "0x74a6dc",
          "transactionHash": "0xa9ed611ae96dcc949a67017bf00cd4f8a47971422c546cbeeb46eceaacdfaf8a",
          "transactionIndex": "0x55",
          "logIndex": "0x137",
          "removed": false
        }
      ],
      "logsBloom": "0x00000000000000000000000000000000000000000000000000080000000000000000000000000000000000000000000000010000020000000000000000000000000000040000000000000008000000000000000000000000000000000000000000000000020000000000000000000800000000000000000000000010000000000000000000000000000000000000000000000000000000000000000000000000000000000000000000000000000000000000000000800000000000000000400000001002000000000000000000000000000000000000000000000000000020000000000000040000000000000000000000001000000000000000000000000000",
      "type": "0x2",
      "transactionHash": "0xa9ed611ae96dcc949a67017bf00cd4f8a47971422c546cbeeb46eceaacdfaf8a",
      "transactionIndex": "0x55",
      "blockHash": "0xd1fd0501c9e1df6a0f9773b350c2b8cae25d7db4f9b7ceb35214c740000cd55c",
      "blockNumber": "0x74a6dc",
      "gasUsed": "0x24159",
      "effectiveGasPrice": "0x9989dae27",
      "from": "0x645c3a312ac2806cae390086c53f91356720f923",
      "to": "0x33c9bd33bfb78840edb366110e018567b51e80c7",
      "contractAddress": null
    }
  ],
  "libraries": [],
  "pending": [],
  "returns": {},
  "timestamp": 1738758456,
  "chain": 11155111,
  "commit": "4c7e647"
}