{
  "transactions": [
    {
      "hash": "0x25feb5c63f60e5e09144d3058a7a64c73a4306c3764a9909171ec36a89b2e4ac",
      "transactionType": "CALL",
      "contractName": null,
      "contractAddress": "0xb45e0e2de556d055331a69a43bbc2846d65ce742",
      "function": "mintNft(string)",
      "arguments": [
        "https://bafybeifzspnhz4xvxujflgqy4r4lt7e6ln3tmbviu75w7pa5o2tkhegf2i.ipfs.dweb.link?filename=wonhi.json"
      ],
      "transaction": {
        "from": "0x645c3a312ac2806cae390086c53f91356720f923",
        "to": "0xb45e0e2de556d055331a69a43bbc2846d65ce742",
        "gas": "0x44f61",
        "value": "0x0",
        "input": "0xda86f4a90000000000000000000000000000000000000000000000000000000000000020000000000000000000000000000000000000000000000000000000000000006668747470733a2f2f62616679626569667a73706e687a34787678756a666c6771793472346c743765366c6e33746d62766975373577377061356f32746b6865676632692e697066732e647765622e6c696e6b3f66696c656e616d653d776f6e68692e6a736f6e0000000000000000000000000000000000000000000000000000",
        "nonce": "0x1a",
        "chainId": "0xaa36a7"
      },
      "additionalContracts": [],
      "isFixedGasLimit": false
    }
  ],
  "receipts": [
    {
      "status": "0x1",
      "cumulativeGasUsed": "0xcf451e",
      "logs": [
        {
          "address": "0xb45e0e2de556d055331a69a43bbc2846d65ce742",
          "topics": [
            "0xddf252ad1be2c89b69c2b068fc378daa952ba7f163c4a11628f55a4df523b3ef",
            "0x0000000000000000000000000000000000000000000000000000000000000000",
            "0x000000000000000000000000645c3a312ac2806cae390086c53f91356720f923",
            "0x0000000000000000000000000000000000000000000000000000000000000000"
          ],
          "data": "0x",
          "blockHash": "0x331dfb66ca96d35b7c6814d01c457f5b961ba467efb06fe765163afec3b01515",
          "blockNumber": "0x74a31e",
          "transactionHash": "0x25feb5c63f60e5e09144d3058a7a64c73a4306c3764a9909171ec36a89b2e4ac",
          "transactionIndex": "0x6f",
          "logIndex": "0xf4",
          "removed": false
        }
      ],
      "logsBloom": "0x00000000000000000000000000000000000000000000000000080000000000000000000000000000000000000000000000010000000000000000000000000000000000000000000000000008000000000000000000000000000000000000400000000000020000000000000000000800000000000000000000000010000000000000000000000000000000000000000000000000000000000000000000000000000000000000000000000000000000000000000000000000000000000000000000000002000000000000000400000100000000000000000000000000000020000000000000040000000000000000000000000000000000000000000000000000",
      "type": "0x2",
      "transactionHash": "0x25feb5c63f60e5e09144d3058a7a64c73a4306c3764a9909171ec36a89b2e4ac",
      "transactionIndex": "0x6f",
      "blockHash": "0x331dfb66ca96d35b7c6814d01c457f5b961ba467efb06fe765163afec3b01515",
      "blockNumber": "0x74a31e",
      "gasUsed": "0x31ed4",
      "effectiveGasPrice": "0x616bd61ce",
      "from": "0x645c3a312ac2806cae390086c53f91356720f923",
      "to": "0xb45e0e2de556d055331a69a43bbc2846d65ce742",
      "contractAddress": null
    }
  ],
  "libraries": [],
  "pending": [],
  "returns": {},
  "timestamp": 1738745797,
  "chain": 11155111,
  "commit": "4c7e647"
}