{
  "transactions": [
    {
      "hash": "0x634233c4538a16a2998e125466850dc7ebafd85c963b21020b257c0690c31a82",
      "transactionType": "CALL",
      "contractName": null,
      "contractAddress": "0x33c9bd33bfb78840edb366110e018567b51e80c7",
      "function": "mintNft(string)",
      "arguments": [
        "ipfs://QmVXcWJze5A7eELji399JTVEomaPAo5JYxfMBtGQYr9m1R"
      ],
      "transaction": {
        "from": "0x645c3a312ac2806cae390086c53f91356720f923",
        "to": "0x33c9bd33bfb78840edb366110e018567b51e80c7",
        "gas": "0x2ca88",
        "value": "0x0",
        "input": "0xda86f4a900000000000000000000000000000000000000000000000000000000000000200000000000000000000000000000000000000000000000000000000000000035697066733a2f2f516d565863574a7a6535413765454c6a693339394a5456456f6d6150416f354a5978664d427447515972396d31520000000000000000000000",
        "nonce": "0x1d",
        "chainId": "0xaa36a7"
      },
      "additionalContracts": [],
      "isFixedGasLimit": false
    }
  ],
  "receipts": [
    {
      "status": "0x1",
      "cumulativeGasUsed": "0x113cdf8",
      "logs": [
        {
          "address": "0x33c9bd33bfb78840edb366110e018567b51e80c7",
          "topics": [
            "0xddf252ad1be2c89b69c2b068fc378daa952ba7f163c4a11628f55a4df523b3ef",
            "0x0000000000000000000000000000000000000000000000000000000000000000",
            "0x000000000000000000000000645c3a312ac2806cae390086c53f91356720f923",
            "0x0000000000000000000000000000000000000000000000000000000000000001"
          ],
          "data": "0x",
          "blockHash": "0xbf8082c18dcb505276b27e0a75f8a4f5bb334d064ed6cd4d63a46ca9dfd079ed",
          "blockNumber": "0x74a6c3",
          "transactionHash": "0x634233c4538a16a2998e125466850dc7ebafd85c963b21020b257c0690c31a82",
          "transactionIndex": "0x79",
          "logIndex": "0x183",
          "removed": false
        }
      ],
      "logsBloom": "0x00000000000000000000000000000000000000000000000000080000000000000000000000000000000000000000000000010000000000000000000000040000000000040000000000000008000000000000000000040000000000000000000000000000020000000000000000000800000000000000000000000010000000000000000000000000000000000000000000000000000000000000000000000000000000000000000000000000000000000000000000000000000000000000000000001002000000000000000000000000000000000000000000000000000060000000000000040000000000000000000000001000000000000000000000000000",
      "type": "0x2",
      "transactionHash": "0x634233c4538a16a2998e125466850dc7ebafd85c963b21020b257c0690c31a82",
      "transactionIndex": "0x79",
      "blockHash": "0xbf8082c18dcb505276b27e0a75f8a4f5bb334d064ed6cd4d63a46ca9dfd079ed",
      "blockNumber": "0x74a6c3",
      "gasUsed": "0x1e892",
      "effectiveGasPrice": "0x825edaff5",
      "from": "0x645c3a312ac2806cae390086c53f91356720f923",
      "to": "0x33c9bd33bfb78840edb366110e018567b51e80c7",
      "contractAddress": null
    }
  ],
  "libraries": [],
  "pending": [],
  "returns": {},
  "timestamp": 1738758110,
  "chain": 11155111,
  "commit": "4c7e647"
}